:020000040000FA
:02000000402896
:0800080040280E083520051008
:10001000860030200F08352005148510860030201A
:100020001008352085140511860030200515003490
:100030008E0A0A300E0203191E2800348E018F0A20
:100040000A300F020319252800348F01900A0A3064
:10005000100203192C2800348E018F019001003406
:10006000C8308C008C0B322800348207C034F9343D
:10007000A434B034993492348234F83480349034D7
:1000800083018316F8308500003086008312073024
:10009000850007308E0002308F00033090004B3017
:0C00A0008D0005208D0B512818204F28E2
:00000001FF
