:020000040000FA
:02000000712865
:08000800712883160030860008
:10001000831286010800FE306C203830860086117D
:100020000A306C2038308600861102306C2038305F
:10003000860086113B202830860086113B20283020
:10004000860086118830860086113B2008308600A5
:100050008611F830860086113B2008308600861114
:100060001830860086113B200830860086116830E3
:100070008600861108008316F0308600831206156C
:10008000861086150608861106158610861500004E
:1000900086118039031D3B28061183160030860027
:1000A000831208003B20C830860086110830860085
:1000B00086110800A0003B202008F0390A3886008D
:1000C0008611200EF0390A38860086110800A53006
:1000D000A100A10B69280800A2006720A20B6D28CF
:1000E000080005200B209F011F08882000380319F5
:1000F0007C285A209F0A742852209F011F089520AF
:100100000038031986285A209F0A7E280000862876
:10011000820748344F344C34413420344D34553404
:100120004E3444344F342134003482074C34493443
:100130004E3445344134203444344F345334003445
:00000001FF
